:020000040800F2
:10000000000002209531000891310008917E00081F
:100010009131000891310008913100080000000082
:100020000000000000000000000000009131000806
:10003000913100080000000091310008157E000891
:100040009131000891310008913100089131000888
:100050009131000891310008913100089131000878
:10006000913100089131000891310008716A00084F
:100070007D6A0008D1570008896A0008956A00085F
:10008000DD7800089D5F000891310008913100087B
:100090009131000891310008913100089131000838
:1000A0009131000891310008913100089131000828
:1000B00025430108314301083D430108D15F000891
:1000C00091310008DD5F000891310008953B01087F
:1000D000A13B0108117700083D77000871770008FF
:1000E00091310008913100080000000091310008B2
:1000F00091310008913100089131000891310008D8
:10010000913100089131000849430108AD3B0108D5
:10011000A5770008D97700089131000891310008CF
:100120009131000891310008D13B0108053C0108DC
:1001300011790008913100089131000891310008CF
:1001400000000000000000000000000000000000AF
:100150009131000891310008913100080D780008B4
:10016000E95F000891310008257E0008497E0008FB
:10017000913100086D7E000891310008913100082E
:100180009131000891310008417800087578000825
:10019000B93B0108C53B01089131000891310008C5
:1001A0009131000891310008913100089131000827
:1001B00091670008913100089131000891310008E1
:1001C0009131000891310008915200089D520008B9
:1001D00091310008A95200089131000891310008BE
:1001E00091310008913100089131000891310008E7
:1001F00091310008913100089131000891310008D7
:1002000091310008913100089131000891310008C6
:1002100091310008913100089131000891310008B6
:100220009131000891310008913100080000000070
:100230009131000891310008000000009131000860
:100240009131000891310008913100089131000886
:100250009131000891310008913100089131000876
:100260009131000891310008913100089131000866
:100270009131000891310008A978000800000000C1
:100280009131000891310008913100080000000010
:0802900000000000913100089C
:1002A00010B5054C237833B9044B13B10448AFF3B0
:1002B00000800123237010BD080600240000000008
:1002C000C0F6010808B5034B1BB103490348AFF35F
:1002D000008008BD000000000C060024C0F60108E4
:1002E000034613F8012B002AFBD1181A0138704776
:1002F00001F0FF01102A2BDB10F0070F08D010F8D7
:10030000013B013A8B422DD010F0070F42B3F6D1DA
:10031000F0B441EA012141EA014122F007047FF0F3
:1003200000070023F0E80256083C85EA010586EA4A
:10033000010685FA47F5A3FA87F586FA47F6A5FA86
:1003400087F68EB9EED1F0BC01F0FF0102F0070292
:1003500032B110F8013B013A83EA010313B1F8D13D
:100360000020704701387047002D06BF354603381E
:10037000073815F0010F07D1013015F4807F02BF57
:10038000013015F4C03F0130F0BC0138704700BFA8
:1003900081F0004102E000BF83F0004330B54FEA36
:1003A00041044FEA430594EA050F08BF90EA020FA3
:1003B0001FBF54EA000C55EA020C7FEA645C7FEA36
:1003C000655C00F0E2804FEA5454D4EB5555B8BF59
:1003D0006D420CDD2C4480EA020281EA030382EACA
:1003E000000083EA010180EA020281EA0303362D5C
:1003F00088BF30BD11F0004F4FEA01314FF4801C2F
:100400004CEA113102D0404261EB410113F0004F40
:100410004FEA03334CEA133302D0524263EB4303F7
:1004200094EA050F00F0A780A4F10104D5F1200E95
:100430000DDB02FA0EFC22FA05F2801841F10001F0
:1004400003FA0EF2801843FA05F359410EE0A5F1C4
:1004500020050EF1200E012A03FA0EFC28BF4CF0F5
:10046000020C43FA05F3C01851EBE37101F00045AB
:1004700007D54FF0000EDCF1000C7EEB00006EEBB8
:100480000101B1F5801F1BD3B1F5001F0CD3490842
:100490005FEA30004FEA3C0C04F101044FEA445299
:1004A00012F5800F80F09A80BCF1004F08BF5FEA20
:1004B000500C50F1000041EB045141EA050130BD00
:1004C0005FEA4C0C404141EB0101013C28BFB1F512
:1004D000801FE9D291F0000F04BF01460020B1FA5D
:1004E00081F308BF2033A3F10B03B3F120020CDA30
:1004F0000C3208DD02F1140CC2F10C0201FA0CF00E
:1005000021FA02F10CE002F11402D8BFC2F1200C72
:1005100001FA02F120FA0CFCDCBF41EA0C01904028
:10052000E41AA2BF01EB0451294330BD6FEA040471
:100530001F3C1CDA0C340EDC04F11404C4F120025C
:1005400020FA04F001FA02F340EA030021FA04F36E
:1005500045EA030130BDC4F10C04C4F1200220FAC5
:1005600002F001FA04F340EA0300294630BD21FA03
:1005700004F0294630BD94F0000F83F4801306BFC9
:1005800081F480110134013D4EE77FEA645C18BFBD
:100590007FEA655C29D094EA050F08BF90EA020F54
:1005A00005D054EA000C04BF1946104630BD91EA4C
:1005B000030F1EBF0021002030BD5FEA545C05D14F
:1005C0004000494128BF41F0004130BD14F580048E
:1005D0003CBF01F5801130BD01F0004545F0FE4102
:1005E00041F470014FF0000030BD7FEA645C1ABF37
:1005F000194610467FEA655C1CBF0B46024650EA6E
:10060000013406BF52EA033591EA030F41F4002199
:1006100030BD00BF90F0000F04BF0021704730B51F
:100620004FF4806404F132044FF000054FF00001F4
:1006300050E700BF90F0000F04BF0021704730B5B5
:100640004FF4806404F1320410F0004548BF40428A
:100650004FF000013EE700BF42004FEAE2014FEADF
:1006600031014FEA02701FBF12F07F4393F07F4FBA
:1006700081F06051704732F07F4208BF704793F0BD
:100680007F4F04BF41F40021704730B54FF46074D0
:1006900001F0004521F000411CE700BF50EA0102D3
:1006A00008BF704730B54FF000050AE050EA01027C
:1006B00008BF704730B511F0004502D5404261EBEC
:1006C00041014FF4806404F132045FEA915C3FF42D
:1006D000D8AE4FF003025FEADC0C18BF03325FEACA
:1006E000DC0C18BF033202EBDC02C2F1200300FA7B
:1006F00003FC20FA02F001FA03FE40EA0E0021FAA0
:1007000002F11444BDE600BF80F0004002E000BFEB
:1007100081F0004142001FBF5FEA410392EA030FEC
:100720007FEA226C7FEA236C6AD04FEA1262D2EB36
:100730001363C1BFD218414048404140B8BF5B423B
:10074000192B88BF704710F0004F40F4000020F0D4
:100750007F4018BF404211F0004F41F4000121F0EA
:100760007F4118BF494292EA030F3FD0A2F1010234
:1007700041FA03FC10EB0C00C3F1200301FA03F172
:1007800000F0004302D5494260EB4000B0F5000F95
:1007900013D3B0F1807F06D340084FEA310102F154
:1007A0000102FE2A51D2B1F1004F40EBC25008BF06
:1007B00020F0010040EA03007047490040EB0000D0
:1007C000013A28BFB0F5000FEDD2B0FA80FCACF1D1
:1007D000080CB2EB0C0200FA0CF0AABF00EBC250FE
:1007E00052421843BCBFD0401843704792F0000FEC
:1007F00081F4000106BF80F400000132013BB5E73F
:100800004FEA41037FEA226C18BF7FEA236C21D0B4
:1008100092EA030F04D092F0000F08BF0846704719
:1008200090EA010F1CBF0020704712F07F4F04D1E7
:10083000400028BF40F00040704712F100723CBFFA
:1008400000F50000704700F0004343F0FE4040F424
:10085000000070477FEA226216BF08467FEA2363E2
:100860000146420206BF5FEA412390EA010F40F4CD
:10087000800070474FF0000304E000BF10F0004319
:1008800048BF40425FEA000C08BF704743F0964300
:1008900001464FF000001CE050EA010208BF70471B
:1008A0004FF000030AE000BF50EA010208BF7047A2
:1008B00011F0004302D5404261EB41015FEA010CB7
:1008C00002BF84460146002043F0B64308BFA3F1AF
:1008D0008053A3F50003BCFA8CF2083AA3EBC25391
:1008E00010DB01FA02FC634400FA02FCC2F12002B0
:1008F000BCF1004F20FA02F243EB020008BF20F0E7
:100900000100704702F1200201FA02FCC2F120024C
:1009100050EA4C0021FA02F243EB020008BF20EA41
:10092000DC70704753B94AB9002908BF00281CBFC2
:100930004FF0FF314FF0FF3000F096B9ADF1080CE9
:100940006DE904CE00F028F8DDF804E0DDE90223CB
:1009500004B07047000000009FED0B6B41EC170BDB
:100960009FED0B5B27EE066BBCEEC66BB8EE464BFD
:10097000A4EE457BFCEEC77B16EE101A17EE900A2C
:10098000704700BFAFF30080000000000000F03DA2
:10099000000000000000F0412DE9F047089D0446EA
:1009A0008E46002B4DD18A42944669D9B2FA82F222
:1009B00052B101FA02F3C2F1200120FA01F10CFA5E
:1009C00002FC41EA030E94404FEA1C48210CBEFB96
:1009D000F8F61FFA8CF708FB16E341EA034306FB1F
:1009E00007F199420AD91CEB030306F1FF3080F0AE
:1009F0001F81994240F21C81023E63445B1AA4B2FB
:100A0000B3FBF8F008FB103344EA034400FB07F79C
:100A1000A7420AD91CEB040400F1FF3380F00A81DD
:100A2000A74240F207816444023840EA0640E41BD2
:100A300000261DB1D4400023C5E900433146BDE87E
:100A4000F0878B4209D9002D00F0EF800026C5E920
:100A5000000130463146BDE8F087B3FA83F6002E38
:100A60004AD18B4202D3824200F2F980841A61EBB0
:100A7000030301209E46002DE0D0C5E9004EDDE7CE
:100A800002B9FFDEB2FA82F2002A40F09280A1EBB6
:100A90000C014FEA1C471FFA8CFE0126200CB1FB0B
:100AA000F7F307FB131140EA01410EFB03F0884204
:100AB00008D91CEB010103F1FF3802D2884200F291
:100AC000CB804346091AA4B2B1FBF7F007FB101123
:100AD00044EA01440EFB00FEA64508D91CEB0404C1
:100AE00000F1FF3102D2A64500F2BB800846A4EB1C
:100AF0000E0440EA03409CE7C6F12007B34022FA07
:100B000007FC4CEA030C20FA07F401FA06F31C4335
:100B1000F9404FEA1C4900FA06F3B1FBF9F8200C42
:100B20001FFA8CFE09FB181140EA014108FB0EF088
:100B3000884202FA06F20BD91CEB010108F1FF3AD8
:100B400080F08880884240F28580A8F102086144E4
:100B5000091AA4B2B1FBF9F009FB101144EA0141F2
:100B600000FB0EFE8E4508D91CEB010100F1FF349D
:100B70006CD28E456AD90238614440EA0840A0FB35
:100B80000294A1EB0E01A142C846A64656D353D00B
:100B90005DB1B3EB080261EB0E0101FA07F722FA2F
:100BA00006F3F1401F43C5E9007100263146BDE858
:100BB000F087C2F12003D8400CFA02FC21FA03F3BB
:100BC000914001434FEA1C471FFA8CFEB3FBF7F03C
:100BD00007FB10360B0C43EA064300FB0EF69E4261
:100BE00004FA02F408D91CEB030300F1FF382FD2FA
:100BF0009E422DD9023863449B1B89B2B3FBF7F6A2
:100C000007FB163341EA034106FB0EF38B4208D97A
:100C10001CEB010106F1FF3816D28B4214D9023EBB
:100C20006144C91A46EA004638E72E46284605E7D9
:100C30000646E3E61846F8E64B45A9D2B9EB0208AA
:100C400064EB0C0E0138A3E74646EAE7204694E73A
:100C50004046D1E7D0467BE7023B614432E730466D
:100C600009E76444023842E7704700BF80B310B51B
:100C70000446406808B116F0C1FDE06B08B116F0FB
:100C8000BDFD606D08B116F0B9FDA06F08B116F09A
:100C9000B5FDD4F8AC0008B116F0B0FDD4F8D8001A
:100CA00008B116F0ABFD206802F07AF9A06B01F0F4
:100CB000ABFE206A02F0C2F8206E01F0A5FFD4F866
:100CC000040101F0A1FF204616F098FD002010BDA0
:100CD0000020704700000000426C002138B5044637
:100CE0009200806F2DED028BB0EE408B16F0B6FDBA
:100CF000D4F8B0200021D4F8AC00920016F0AEFD7C
:100D0000D4F8B0200021D4F8D800920016F0A6FD47
:100D1000B5EEC08B0023F1EE10FAC4F8A830C4F889
:100D2000B43067DD9FED367B94ED0C4B24EE074B22
:100D3000D4ED137AB8EEE77AD4ED127AB8EEE75A2A
:100D4000B7EEC77AB7EEC55A84EE076B84EE057B23
:100D5000B7EEC66BB7EEC66AB7EEC77BB4EEC68B0E
:100D6000F1EE10FA08DDB6EE005B28EE058BB4EE6E
:100D7000C68BF1EE10FAF8DCB7EEC77AB4EEC87B9A
:100D8000F1EE10FA06DD38EE088BB4EEC78BF1EE0B
:100D900010FAF8D4B7EEC88BB7EEC88A84EE087B99
:100DA000B8FE477BFDEEC77B17EE902A002A1DDBBD
:100DB000636C93421ADDA36F4FF07E51D4F8B000FC
:100DC00003EB82031960411EC4ED2A7A0ED4D4F8D5
:100DD000AC50DFF834E04318891A93FBF0FC00FBB9
:100DE0001C3305EB8303C3F800E0F4D50022002395
:100DF000C4E94A23BDEC028B38BD00BFAFF30080CD
:100E00000000000000004E400000704100000000A3
:100E100008B5D0F8A830002B2DED028B27DD90F817
:100E20003821052A10D007EE903A90ED0C6B9FED1B
:100E3000125BB8EEE77A26EE056BB7EEC77ABDEC2B
:100E4000028B86EE070B08BD9FED0B7B90ED0C8BA4
:100E5000D0E94C0128EE078BFFF71EFD07EE900A44
:100E6000B7EEE77A88EE070BBDEC028B08BDBDEC50
:100E7000028B9FED030B08BD0000000000004E40F8
:100E800000000000000000009FED1D6B90ED0C5B6A
:100E9000D0ED137A25EE065BB8EEE77AD0ED127A44
:100EA000B8EEE74AB7EEC77AB7EEC44A85EE076BED
:100EB00085EE047B10B50446B7EEC66BB7EEC66A86
:100EC000B7EEC77BB4EE406BB7EEC77AF1EE10FA1F
:100ED00048BFB0EE460BB4EEC07BF1EE10FA03DC77
:100EE000B7EEC00BB7EEC07A85EE076BB8FE467B57
:100EF00051EC170BFFF730FDC4E94C0110BD00BFEA
:100F00000000000000004E402DE9F04F2DED068B53
:100F100097B004460021426C00AF406DD20016F03D
:100F20009DFC616C606D002910DD054600EB8106BB
:100F3000D4E90FC292FBF1F301FB132301320CEB56
:100F400083031B6845F8043BB542F3D1490094ED97
:100F5000160B01F0EBFA656DD5ED007AF5EE407AEF
:100F6000F1EE10FA00F0BE81D4E912C161452CDA2D
:100F700005EB8102D4F844E001EB41000B46C1EBE4
:100F8000417602EB800000EBC606BEEB430F07DDA7
:100F9000D2ED007A96ED007A77EE877AC2ED007A8C
:100FA000BEEB830F06F1080603F1010307DDD2ED66
:100FB000007A90ED007A77EE877AC2ED007A634589
:100FC00002F1040200F11000DFD1266D6B464FEAFA
:100FD000860E0AEE903A002E0EF1070E2EF0070351
:100FE000ADEB030DC7F80CD007DDFB681A1F00231B
:100FF000013342F8041F9E42FAD10CF1FF339942AB
:1010000050DAA5F10408F7EE007A05EB8103D7F872
:101010000C9008EB8C084FF0000C03E0984501F1B0
:1010200001013FD0F0EE676A1A46B3EC017AD2EDC7
:10103000017AF5EEC06A77EEC77AF1EE10FAEDDDCF
:10104000F5EEC07AF1EE10FAE8D559F82C2005EB50
:101050008202D2ED006AB4EEE67AF1EE10FADDDD3E
:10106000012E49F82C1040F34F81CA4601224FF05F
:10107000000C59F82C0005EB800090ED007A5AF82E
:10108000040F05EB8000D0ED006AF4EE476AF1EE44
:1010900010FA48BF944601329642EAD1984501F1D0
:1010A0000101BFD1DFF874C22EF0070E07F1180955
:1010B00007F13805ADEB0E0D002EBCE80F00A9E8D6
:1010C0000F000CF11008EB46ADEB0E0DAE469CE8A0
:1010D0000F0089E80F00B8E80F00AEE80F0098E8AD
:1010E0000F00EA468EE80F0040F302819FED8A9AD6
:1010F0004FF00008FB68F0EE499AC7F810A0B0EE78
:1011000049AAA3F10409C7E901BA206EABEC01AA10
:1011100001F06AFD59F8046F002E42DD07EE906A77
:101120004FF0000AF8EEE78A07EE90AA626C9FED96
:101130007A8A07F11800F8EEE76AAC467E61F0EEB5
:10114000667AB0EC017AE7EE287AFDEEE77A17EEE0
:10115000903A9A420EDD266CE16B3344DCED007A66
:1011600093FBF2FE02FB1E3301EB830393ED007A47
:10117000A7EE278A85420CF1040CE0D1B7EEC80A2D
:10118000206E7E6901F050FD5BED017A0AF1010AE3
:10119000F4EEC87AF1EE10FA48BF0BED018AB245C1
:1011A000C2D1206E08F1010801F03AFD236DB7EEBF
:1011B000C00B3A695BED017A4345A2EC010A39EEB6
:1011C000279A79EE809A3A619FDCB5EE409AF1EE6B
:1011D00010FA00F08D80F5EE409AF1EE10FA0CBF97
:1011E0000121002100F08480002B19DDBFEE006A90
:1011F0000A46D7E90150B5EC017AF0EC016AC7EE76
:10120000097A86EEA97A77EE877AF4EEC67AF1EE5D
:1012100010FA02DBB0EE676A114601329342EAD15E
:10122000E36C8B4264D0FB6853F8216006EE906A51
:1012300094ED1C7BB8EEE60B20EE070B14F038FAA9
:101240009FED335B94ED1A6B80EE057BB7EEC77BA9
:1012500027EE477AB7EEC77A87EE060B14F04CF903
:10126000E56CA36CAB4294ED228B20EE088BB7EEBD
:10127000C88B46DDAE1B4FF0000807EE906A0136C2
:10128000B8EEE77A94ED240B27EE477AB7EEC77AEB
:1012900087EE000B14F030F9A36FA16C03EB85020D
:1012A000B7EEC00B03EB880392ED007A94ED206B50
:1012B000B7EEC77A27EE067BB7EEC77BA8EE007ABB
:1012C00082ED007AD3ED007AB4EE677AF1EE10FA8F
:1012D000C8BFA8460135A942CFDC1AEE903AC4F83F
:1012E000A8809D465C37BD46BDEC068BBDE8F08FFF
:1012F0001AEE903A5C379D46BD46BDEC068BBDE8C4
:10130000F08F4FF00008E8E74FF0000C86E600BFD2
:10131000EF39FAFE422EE63F00000000548C01082F
:101320002DE9F04FD0F8A8A0BEEE007B054606EEF2
:1013300090AACAEBCA7BD0E91032B8EEE61B4FEA9E
:101340004B0B02EB030921EE077B09F1FF3999FBF7
:10135000F2F1D0E92C43FDEEC77B02FB119962420A
:1013600003EB440817EE906A9345B8BF9346964244
:10137000B8BF16465E452DED048B89B040F36A81F7
:101380009FEDBD9A9FEDB88B03E0D5F8B040D5F83E
:10139000A8A007EE10BA07EE90AAB8EEC77AF8EE4A
:1013A000E77A87EE270AB1EE400AB7EEC00A14F0DA
:1013B0007FF980EE087B95ED346BB7EEC77B27EEA7
:1013C000077AB7EEC70A20EE060BB7EEC00BB7EEF2
:1013D000C00A14F091F80BEB0803D5F8AC70B7EE27
:1013E000C00B0BF1010B93FBF4F204FB123307EB80
:1013F0008303D3ED007A20EE270AB4EE490AF1EE1A
:1014000010FA30FE099A5E45BFD1D5F8A8A0B7EE14
:10141000C97A06EE90AAB8EEE61BD5E92C4395ED05
:101420002E5BEA6B5E1C07EB8303EE4602EB890240
:1014300027EE057B0DF1100CBAF1000F92ED005A6A
:1014400095ED306BB7EEC55A96FBF4F2A6EE057B30
:1014500004FB1266B7EEC77B07EE90AAF8EEE75AD8
:1014600083ED007A854BC5F8B46003F110080FCB0B
:101470008EE80F0098E80F008CE80F0043DDFFEEC8
:10148000004A9FED7D0AB7EE005A4FF0000807EEC4
:10149000908A71466046DFED786AB8EEE76AF0EE52
:1014A000467AB1EC017AE7EE257A77EE857AFDEEA1
:1014B000E77A17EE903AA342A6EB030210DAD0EDDA
:1014C000007A92FBF4F304FB1322224492FBF4F320
:1014D00004FB132207EB820292ED007AE7EE276A03
:1014E0008C4500F10400DAD1F4EEE46AF1EE10FA72
:1014F00003DDF0EE664AB0EE460A08F10108D04579
:10150000C5D175EEC05AD5F8E030D5F81C11D5F824
:10151000E4200B449B1A07EE903AB8EEE70A35EE4A
:10152000C00AB7EEC00A14F0EFFDD5F8B020F7EE10
:10153000C08B002A40F393800026BFEE008A344619
:10154000D5F8A820D5ED3A7A94FBF2F302FB1343C9
:10155000B8EEE77A07EE903AF8EEE77A77EEE87AB7
:1015600067EEE77A87EE870AB7EEC00A13F0C4FF8A
:10157000D5F8DC10D5F8B020B7EEC00B0B19D5F8B4
:10158000D80093FBF2F702FB173300EB8303D3ED94
:10159000007A30EE270AB4EEC80A83ED000AF1EEB5
:1015A00010FA02DDB0EE408A26460134A242C7DCC2
:1015B00000EB810000230131036091FBF2F302FB99
:1015C0001311D5F8E430B342C5F8DC1004D009B0EB
:1015D000BDEC048BBDE8F08FD5F8A000D5F8F02065
:1015E000D5F8A410D5F8F430904271EB0303EED394
:1015F000D5ED2A7AB8EEE78BFFF750F8D5F8402101
:1016000095ED3E6B41EC170BA8EE067BFDEEC77B1C
:1016100017EE903AD917C5E93C31002AD7D028688F
:10162000D5F8E060D5E9264701F0B0FDD5F82011E6
:1016300000FB06F3D5F84C01621A67EBE1779A18C4
:10164000D5F8401147EBE37309B0BDEC048BBDE85E
:10165000F04F08479FED067BD0F8AC70DFE6D5E988
:1016600036010026A4E700BFEF39FAFE422EE63F1E
:10167000000000000000000000000000948C010841
:1016800030B583B00446074B15460090006801F062
:10169000E7FCD4E926325B1942EBE572C4E9263255
:1016A00003B030BD751E0008B7EE005B90ED1C4B1B
:1016B000B4EE450B85EE047BF1EE10FA00B590ED2B
:1016C0000C6B2DED068BB0EE408B83B09FED269B0F
:1016D00090ED1A0B48BFB0EE458B26EE096BB5EEC8
:1016E000400BF1EE10FAB7EEC77BB7EEC77A86EE85
:1016F00007AB2CD4B1EEC07BB7EEC88BB7EE003B86
:101700002AEE077BB7EEC88A86EE085BB5EEC07B93
:10171000F1EE10FA83EE054B80ED1C4B12D983EEEF
:10172000045BB7EEC55BB7EEC55A86EE054BB5EE6A
:10173000C04BF1EE10FA05D987EE046B26EE066B6E
:1017400080ED1A6B03B0BDEC068B5DF804FB0190D5
:1017500014F02EFD0198B0EE407B90ED0C6B26EE60
:10176000096BC9E7AFF300800000000000004E40A5
:1017700090ED0C5B9FED747B9FED756B9FED762B71
:1017800025EE075B416CB7EE004BB6EE001B85EE15
:10179000067B85EE026B9FED723B38B504460A234B
:1017A00080ED043B80ED161B90F83801236537EE81
:1017B000047BBDEEC77BFDEEC66B17EE103A16EE4E
:1017C000902A23EAE37322EAE2728B42E264A8BF22
:1017D0000B460428A36400F098800323B2EE040AA9
:1017E000A06B84F8383101F077F90023206AA360F8
:1017F0009FED5D0B01F058FBB1EE040B206A01F088
:1018000057FB206801F0C0FC07EE900A9FED586B73
:10181000B8EEE77B64A3D3E9002327EE067B64A13F
:10182000D1E90001C4E92E2300225D4BC4E9300157
:1018300084ED067B9FED500B2046C4E93423FFF76F
:1018400033FFB7EE003B94ED1C4B9FED3F5B94EDF7
:101850000C6B83EE047B26EE056BB7EEC77BB7EE11
:10186000C77A86EE075BB5EEC05BF1EE10FA07D9DA
:101870009FED436B86EE057B27EE077B84ED1A7B9D
:1018800041A3D3E9002342A1D1E90001C4E9222305
:10189000D4F8B0300A220025142BC4F8E0204FF011
:1018A000C802C4F83C51D4BF03F1FF331423C4F879
:1018B0004C512564C4F80851C4E92001002039497D
:1018C000C4E9240134A1D1E90001C4E93932C4E9F1
:1018D0003E01002300220221D4F80401C4E926239A
:1018E000C4E92823C4F80011C4E9505501F07CF97B
:1018F000626C2946E06B920015F0B0FF20469FED28
:10190000180BBDE83840FFF7E7B994ED327BB4EE31
:10191000C37BF1EE10FA0DD4B4EEC47BF1EE10FAF5
:101920000DDDB0EE436BB0EE447B84ED2E7B84ED99
:10193000306B52E7B0EE446BB0EE437BF5E734EE2C
:10194000476BF2E7AFF300800000000000004E405C
:101950000000000000004940000000000000694055
:1019600000000000000000009A9999999999B93FE8
:10197000C1802747FD262A3F0000000000005E408E
:101980000000000000C0524000AAF1D24D62503F5A
:101990002B8716D9CEF7EF3F9A9999999999D93F04
:1019A00000C072C000004940CDCCCCCCCCCCEC3FC8
:1019B000989999999999B93F10B5044600682DED09
:1019C000028B08EE101A01F0E1FB06EE900AB8EE69
:1019D000C87BB8EEE65BBDEC028B87EE056BB8FE0C
:1019E000466BBDEEC66BB8EEC64B84ED476AA4EEFF
:1019F000457BBDEEC77B84ED487A10BD000000003A
:101A00002DE9F04F2DED028B83B01D4683468946AC
:101A100001204FF4A871B0EE408B1646DDF83880F7
:101A2000DDF844A0DDE90F73019315F0A7FE04462D
:101A3000002876D049460022584601F0CBFA2060B3
:101A4000002874D05846042115F098FE60600028E4
:101A50006DD0404601F0B2F92062002867D09FEDBA
:101A6000380B01F005FA206884ED0A8B01F08EFB3B
:101A700007EE900AB2EE040A3146B8EEE77B00208A
:101A800088EE076B84ED0C6B00F0D4FFA063002898
:101A90004DD094ED0C0BB7EEC00B01F011F8042102
:101AA000A06B01F025F804212846656415F066FE58
:101AB000E06300283BD0002304216800236415F074
:101AC0005DFE606598B32846042115F057FEA067B7
:101AD00068B304213846C4F8B07015F04FFEC4F85E
:101AE000AC0020B30421384615F048FEC4F8D800F5
:101AF000E8B101F069F82066C8B101F065F8C4F8F2
:101B00000401A0B1019B51462046C4F81831FFF7EB
:101B100053FF2046FFF72CFE20469FED0B0BFFF7EF
:101B2000B3F9204603B0BDEC028BBDE8F08F204630
:101B300003B0BDEC028BBDE8F04FFFF797B800BFD4
:101B400000000000000000000000000000005E40F7
:101B500000B540F2F64085B040F259314FF4806351
:101B60000F229FED070BCDE9021008211846CDE9A1
:101B70000033FFF745FF05B05DF804FBAFF30080CD
:101B8000000000008088E54038B5052990F838311C
:101B90000D46044628BF0525042B15D0042904D082
:101BA00003B161B384F8385138BDD4E92E2384F8E9
:101BB0003851C4E9322300221D4BC4E92E230022F0
:101BC0000023C4E9302338BD0429EBD090ED327BEB
:101BD000B5EEC07BF1EE10FA1DD4B7EE005BB4EEAB
:101BE000C57BF1EE10FA1BDDB0EE457B9FED0E6B71
:101BF00084ED2E7B84ED306B002BD2D1D2E7002216
:101C0000D4F8040184F83931C4F8082100F0ECFF5D
:101C100084F8385138BDB7EE006B9FED037BE7E7E2
:101C200035EE476BE4E700BF000000000000000055
:101C30000000F03F000000002DE9F0438846002638
:101C400005461146404654102DED048B83B0019695
:101C500000F080F995ED040BC8F80060B5EEC00BFC
:101C6000F1EE10FA59DC012C40F3CB8008F10406A8
:101C700032460123002195ED066BB2EC017A013367
:101C8000B7EEC77AB4EEC67BF1EE10FA48BF42F861
:101C9000041C9C42F1DCAB68002B40F0AA806B680E
:101CA00032464FF0010C9FED726A0433F3EC017A77
:101CB000F0EE466AB2EC017A0CF1010CB4EEE77A70
:101CC000F1EE10FAC8BF77EE676ADDED017A644580
:101CD00077EEA67ACDED017A03ED017AE6DC0122FA
:101CE00001A9A86B00F032FFEA6B9DED010AD5E96E
:101CF0001001B5EEC00A431C02EB800293FBF1F029
:101D0000F1EE10FA01FB103382ED000A2B6428DC9F
:101D100003B0BDEC048BBDE8F083B7EE008B30EE72
:101D2000080B13F0C5FC012C88EE009B69DD08F15F
:101D3000040608EB8409374697ED007AB0EE480BAD
:101D400095ED046BB7EEC77AA6EE070B13F0B0FC67
:101D500020EE090BB7EEC00BA7EC010AB945EBD199
:101D600086E7B7EEC00A286A01F0A6F8B7EE007B56
:101D7000B4EE470BF1EE10FACAD1D5F83C1149B1D7
:101D8000D5F81831D5E92620D21A60EBE373D5F8DF
:101D90004401884795F83831002BB9D1D5F808317E
:101DA0000133012BC5F8083116DDD5F8A030D5F880
:101DB0001021AC6C981AD5F8A410D5F8146184429F
:101DC00002DBEC6C84423EDDD5F8040100F00CFF30
:101DD00001221346C5F80821D5F800219A4219DDE1
:101DE000D5E92823C5E9442303B0BDEC048BBDE845
:101DF000F0832146404600F0EBFB012C3FF74FAF4C
:101E00006DE7AB68002B3FF46AAF2146404600F017
:101E1000DFFB64E795ED0C7B9FED138BD5F8040198
:101E200027EE088B00F0F8FE2846B7EEC00BB7EEA1
:101E3000C00A88EE000BFEF74FFF95F839112846CF
:101E4000FFF7A2FECCE79B1A61EB0601FEF726FC2A
:101E500041EC100BD5F8040100F0E6FED5F808318E
:101E6000BAE700BFAFF300800000000000004E4062
:101E700000000000D0B504462DED028BFFF7DCFE1C
:101E800094F83811D4E92832013342F100020529CF
:101E9000C4E928321AD0881E012808D9022903D99A
:101EA000D4F8A830002B41DCBDEC028BD0BD606CB7
:101EB0004FEAE07C834272EB0C03EFD32046FFF73E
:101EC00023F894F838110229EED9E9E7D4E94A3227
:101ED000D4E94C01013342F100028342C4E94A32A1
:101EE00072EB0103E0D32068D4E9266701F04EF9D4
:101EF00008EE100A39463046FEF7D0FBB8EEC88B24
:101F0000B6EE007B41EC160BA8EE076B51EC160BFE
:101F1000FEF722FD02460B46D4F84C01D4F84011DE
:101F2000884700220023C4E94A23BDE7BDEC028BA9
:101F30002046BDE8D040FFF7F3B900BFC0F83C1120
:101F4000C0F84421704700BFC0F84011C0F84C21D0
:101F5000704700BF032929DD70B54E10051D00EB49
:101F6000810400EB86062DED028B95ED008A34EDA1
:101F7000011AB7EEC88AB7EEC11AB0EE480B14F0DA
:101F8000EBF8B7EEC00BB0EE481BA5EC010A94EDE0
:101F9000000AB7EEC00A14F0B3F8B7EEC00BB542B2
:101FA00084ED000AE1D1BDEC028B70BD704700BF2B
:101FB000012924D9012270B54D104E1E00F1040EE6
:101FC000AC46D343944502F1010200EB8C0403EAD2
:101FD000020307D9DEED007A94ED007A8EED007AE7
:101FE000C4ED007A8A420EF1040EB5FBF3F3C3F19F
:101FF000000303EA06038CEA030CE2D170BD7047CC
:102000002DE9F04F02298BB00391079040F3B48083
:1020100001230C4619461A46013301FA03F0A04287
:10202000F9DB079803990892FFF7C2FF4B1E0146A0
:10203000021D5B080831099201EBC301034693EDD1
:10204000017A083252ED037A083337EE277A8B4251
:1020500002ED037A13ED017A77EEC77A43ED017A48
:10206000EDD10123DFF83CB105930693059A4FF0BB
:10207000000ADDF824E0134601925200990002EBB9
:10208000030802F1010C02914FF000414FEA0319DD
:102090000592B1FBF2F707991A46C3EB830301EBF4
:1020A00088089B0001EB8C0C01EB820604935EED2B
:1020B000017A1CED017A019B37EE277A012B0EED98
:1020C000017A1CED017A77EEC77A4CED017AD8EDF2
:1020D000007AF1EE677AC8ED007A3DDD049BACF141
:1020E0000400724664469D19394601F1804375ED3E
:1020F000017A94ED005A1B0D30ED016A0BEB83035E
:10210000D3ED005A0B0D39440BEB830325EEE77A30
:10211000D3ED004AA5EE247A67EEA47AE5EE257A9F
:10212000F0EE476A36EE477A85ED007A90ED007A58
:10213000B1EE477A37EE667AA4EC017A92ED007A36
:1021400037EE677A80ED007AB2EC017A77EE277A83
:10215000964242ED017AC8D1029BC844CC44CE4499
:102160009A44039B4E445345A1DC069A0899531C9C
:102170008A4213D0069379E7FFF71AFF039B002BDF
:102180000CDD079BD3ED007A93ED017A77EE276A99
:1021900077EEC77AC3ED006AC3ED017A0BB0BDE8F4
:1021A000F08F00BFD48D01082DE9F04FD54B8DB0D5
:1021B00002298B46D3ED001A069040F3AE8101232D
:1021C0001A461946013302FA03F05845F9DB4FEA83
:1021D0004B03B0EE001A0B9101930BF1FF33039305
:1021E00001230A93019A4FF00043CDF808B0511033
:1021F00093464FEAE20A05920191AAEB8A09CAEBDB
:102200008A78CAEB4A7E4FEA89094FEA88084FEA82
:10221000CE0EB3FBF1F311115B0004910021079383
:10222000029B8B4240F3318101EB4A03049A0698EA
:102230004FEA8B0C53441A4400EB830300EB8202F9
:1022400003EB090603EB080403EB0E05BAF1010FDB
:10225000D4ED006A02EB0800D6ED007A02EB0E071F
:10226000594437EEA67A77EEE67A86ED007A95ED58
:10227000007A37EE077A85ED007AB0EE677AD3ED13
:10228000006AA6EEC17A84ED007A93ED007AE7EE5B
:10229000017AC3ED007A634429D0D0ED006A02EBE5
:1022A0000904D2ED007A97ED007A77EEA67AD4EDA4
:1022B000006A37EE666A61EEE77A77EE266AB0EE7C
:1022C000677AE6EE217AC4ED006AD2ED006AA6EEE6
:1022D000617A90ED006A76EEC66A77EEA77AC7ED6E
:1022E000006A37EE077A80ED007AC2ED007A029834
:1022F00062448842A4DC019BC3EB4B01039BE34691
:1023000099428DDB049BDDF808B0012B40F3B380CC
:10231000059B102723F001030993049BCDF810A01F
:102320000133DDF818A00893079B0593022302935D
:1023300005990026744801F1804201EB4103DDF864
:102340002490120D00EB820292ED002A03F18042EC
:102350001B0D120D00EB8303D3ED002A00EB82036B
:10236000079A93ED003A0B0D8A1800EB8303059250
:10237000D3ED003AB34540F38580049C4FEA8900D1
:102380000299A3198D195B1A0AEB8505E2180AEB6D
:102390008303A11802EB44040AEB82020AEB8101D9
:1023A0000AEB8404D2ED017A03EB070815ED017AFC
:1023B00002EB070E01EB070C4E4477EE276A37EE6F
:1023C000677AB34545ED016A0544D3ED017A58EDCE
:1023D000016A37EEA66A77EEE67A83ED016A034476
:1023E000D4ED016A1EED016A76EEC65A76EE866A73
:1023F000C2ED015A024477EEE64A91ED014A77EECA
:10240000A67A5CED016A23EEA45A76EE845A76EE43
:10241000C46A27EEE26A37EE654A48ED016AF0EEDB
:10242000456A37EE257A63EE845AE2EE046AA3EE3B
:10243000076AE4EEC25A4EED016A62EE876AC1EDA8
:10244000015A0144B0EE667A0CED016AA3EE277AD8
:1024500084ED017A0444A5DC019BC3EB4906039B90
:1024600081469E4286DB029B0837089A01339342DD
:1024700002937FF45DAF0A9A0B99531C8A4207D0EE
:102480000A93AFE64FEA8900E6E74FEA8B0C32E7A2
:1024900004240122069D511E8B4537DD05EB820386
:1024A000A0001A46043B52ED017A214493ED017AD3
:1024B0008B4537EE277A02ED017A024493ED017ADB
:1024C00077EEC77AC3ED017A0344ECDC6200044680
:1024D000013A9345DFDC59460698FFF769FD07EEA0
:1024E00090BA069A0023F8EEE77AD2ED006A01333B
:1024F00086EEA77A9B45A2EC017AF6DC0DB0BDE82A
:10250000F08F00BFD4950108D48D01086200A000AF
:10251000013A04469345BEDCDDE7B9D0FFF748FD3C
:102520000129DCD00DB0BDE8F08F00BF2DE9F047E8
:10253000074689462DED028BFFF762FDB0EE408B1A
:1025400049463846FFF706FD97ED000AB0EE481BF6
:102550004FEA6906B7EEC00A13F022FAB7EEC00BD5
:10256000012E87ED000A30DD6FF040454FEA860A04
:102570003C1D07EB86064D444FF0000807EB850530
:1025800094ED000AB0EE481BB7EEC00A13F008FA4B
:10259000F7EEC07BE4EC017AB44245F8048DEFD14C
:1025A000BA44B0EE481B9AED000AB7EEC00A13F029
:1025B000F7F9B7EEC00B49463846BDEC028B8AED01
:1025C000000ABDE8F047FFF7EFBD4FEA860AE7E7EC
:1025D000002925DD84460022DFED127A00E01A464C
:1025E000BCEC017A531CB4EE677AF1EE10FA77FE78
:1025F000277A9942F3D1F5EEC07AF1EE10FA0FDDA9
:10260000F7EE006A002186EEA77AF0EC017A8A42A2
:1026100001F1010167EE877A40ED017AF5D170474B
:10262000704700BF0000000007EE901A00299FEDE0
:102630001C6BB8EEE77B70B52DED0A8B86EE079B21
:1026400028DD0E4605460024B7EE006BB6EE00CB43
:102650009FED158BB0EE46BBB0EE48AB09E013F032
:102660006BFCB0EE40BB38EE080B13F065FCB0EE2F
:10267000406BB0EE4C7B013438EE098BA642ABEEDA
:102680004C7BB0EE480BA6EE0A7BB7EEC77BA5EC01
:10269000017AE4D1BDEC0A8B70BD00BFAFF30080BE
:1026A000182D4454FB2119400000000000000000D8
:1026B000002A02F1FF330ADDF0EC017A013BB1ECB4
:1026C000017A5A1C67EE877A40ED017AF4D170479F
:1026D000704700BF416800290BDB82694FF07E50D4
:1026E000131D03EB81018B4210601A4603F10403B2
:1026F000F9D170470000000090ED037AD0ED047A24
:10270000F8B52DED068BC7EE27AA4768002F07EE18
:10271000107ABAEEEF7B9FED206BB7EEC7ABB7EE4A
:10272000EA7A27EE067B31DB01370024F7EEC78B10
:102730009FED1B9BD0E906651CE037EE4A8A28EE28
:10274000880AB7EEC00A13F037FCB7EEC87AB7EEC6
:10275000C00B27EE097BB7EEC00A80EE076BB7EE21
:10276000C66BF6EC017A013467EE867ABC42E5EC82
:10277000017A0BD007EE904AB8EEE77AB4EE4A7AC7
:10278000F1EE10FAD9D13AEEAA6AEAE7BDEC068B6F
:10279000F8BD00BFAFF30080182D4454FB21194051
:1027A000182D4454FB21094090ED036AD0ED046AD2
:1027B000F8B52DED0C8B86EE268A4768002F9FED2D
:1027C000287BB7EEC88A28EE077B43DB002447EC62
:1027D0001D7BBAEEEFDB0137F7EEC7CBB1EE488BCE
:1027E000B7EECDDBB0EE00BBB7EE00AB9FED1E9BAE
:1027F000D0E906651EE037EE4DCA2CEE8C0AB7EE26
:10280000C00A13F0D9FBB7EECC7AB7EEC00B27EEB7
:10281000097BB7EEC00A80EE076BB7EEC67BB1EE60
:10282000477AB6EC016A013426EE077ABC42A5EC81
:10283000017A0FD007EE904AB8EEE77AB4EE4D7AFF
:10284000F1EE10FAD7D1B0EE4A7BA8EE0B7BB7EED3
:10285000C77BE6E7BDEC0C8BF8BD00BFAFF3008093
:10286000182D4454FB211940182D4454FB210940D4
:10287000FFF79ABF0000000070B5466807EE906A47
:10288000002E9FED176BB8EEE77B2DED088B86EEE3
:10289000078B1FDB85692C1DB7EE000BB6EE00AB76
:1028A00004EB86069FED10BBB0EE409B01E013F0F9
:1028B00043FB39EE400BB4423BEE08BB20EE0A7BF3
:1028C000B0EE4B0BB7EEC77B85ED007A254604F1E1
:1028D0000404ECD1BDEC088B70BD00BFAFF30080E9
:1028E000182D4454FB211940000000000000000096
:1028F00070B5466807EE906A002E9FED176BB8EE34
:10290000E77B2DED088B86EE078B1FDB85692C1D81
:10291000B7EE000B04EB86069FED11BB9FED12ABEB
:102920009FED139B01E013F007FBB0EE497BB4422F
:102930003BEE08BBA0EE4A7BB0EE4B0BB7EEC77B7D
:1029400085ED007A254604F10404ECD1BDEC088B3A
:1029500070BD00BFAFF30080182D4454FB21194017
:102960000000000000000000713D0AD7A370DD3FA9
:1029700048E17A14AE47E13F70B5466807EE906AC9
:10298000002E9FED1D6BB8EEE77B2DED0A8B86EEDA
:10299000079B2BDB85692C1DB7EE006BB6EE00CBD9
:1029A00004EB86069FED168BB0EE46BBB0EE48AB4F
:1029B00009E013F0C1FAB0EE40BB38EE080B13F09B
:1029C000BBFAB0EE406BB0EE4C7BA64238EE098B02
:1029D000ABEE4C7BB0EE480BA6EE0A7BB7EEC77BA6
:1029E00085ED007A254604F10404E2D1BDEC0A8BA2
:1029F00070BD00BFAFF30080182D4454FB21194077
:102A0000000000000000000090B110B5044680698D
:102A100008B114F0F3FEE06908B114F0EFFE60694C
:102A200008B114F0EBFE204614F0E8FE002010BDC3
:102A300000207047F8B506460D46012020212DEDF7
:102A4000028BB0EE408A14F099FE044648B31A4B4C
:102A50006F1C06700421C0E90155384684ED038AD5
:102A6000236114F08BFE6061F8B10421384614F044
:102A700085FEA061C8B10421384614F07FFEE061F4
:102A800098B16378052B0CD0052320466370FFF7BF
:102A900073FF2378032B04D8084A204652F82330CA
:102AA00098472046BDEC028BF8BDBDEC028B20465A
:102AB000BDE8F840FFF7A8BF00442C47D4CD01087B
:102AC000027880ED040A032A03D8024B53F822301F
:102AD00018477047D4CD0108027880ED030A032A15
:102AE00003D8024B53F8223018477047D4CD010861
:102AF00043788B421ED04B1E10B504464170042B08
:102B000007D8DFE803F00306111315000A4B20462F
:102B100098472378032B06D8084A204652F82330DA
:102B2000BDE81040184710BD054BF0E7054BEEE738
:102B3000054BECE7704700BFD5260008D4CD01084F
:102B400079280008F128000879290008002A2DE9D1
:102B5000F843456827DD0E468046571E4FEA850933
:102B60004169002D21DD081D4A4614F05DFED8F8AC
:102B7000141096ED007A81ED007AD8F81C4001F12E
:102B8000040CDFED107A002301E0BCEC017A013384
:102B9000F4EC016A9D42E6EE877AF6DA013FE6EC54
:102BA000017A7B1CDDD1BDE8F88396ED007A81EDDA
:102BB000007AE2D0013FDFED037A7B1CE6EC017A7C
:102BC000CFD1F0E70000000008B53021012014F05B
:102BD000D5FD38B100220023C0E90623C0E908234F
:102BE000C0E90A2308BD00BF002200230021C0E97C
:102BF00002230160C0E90423C0E90623C0E90823D9
:102C0000C0E90A23704700BF20B108B514F0F6FDF3
:102C1000002008BD0020704790ED020B704700BFF8
:102C200090ED040B704700BF0268531C012B03603A
:102C300024D007EE903A06EE902A90ED062BB8EEDF
:102C4000677BB8EE666B30EE423B90ED0A5B83EE3D
:102C5000074BB0EE457B34EE024B30EE440B80ED7B
:102C6000024BA3EE007B80ED064B87EE065B80ED0A
:102C7000087B80ED0A7B80ED045B70470022002317
:102C800080ED020B80ED060BC0E90A23704700BF00
:102C900070B110B50446806908B114F0AFFDA06AA8
:102CA00008B114F0ABFD204614F0A8FD002010BDC3
:102CB0000020704770B530210546012014F05EFDFC
:102CC000044618B308212846256014F057FD06462F
:102CD000A06130B33021012014F050FD0546B8B199
:102CE000002200230021A062E1610160C4E9022307
:102CF000C4E90423C4E90823C0E90223C0E904238A
:102D0000C0E90623C0E90823C0E90A23204670BDB4
:102D1000304614F073FD20462C4614F06FFD20461B
:102D200070BD2046BDE87040FFF7B2BF0146C069E4
:102D30008A69431C02EBC002886A10B50C6892EDE8
:102D4000006B82ED000BB3FBF4F204FB1233CB619A
:102D500003689C421ED807EE904A30EE463B36EEA2
:102D6000006BB8EE677B91ED022B83EE074B36EEDE
:102D7000426B91ED085B34EE024B36EE446B81ED15
:102D8000024BA3EE065B85EE076B81ED085B81EDE0
:102D9000046B10BDFFF748FF8B6AD1ED007A93ED0D
:102DA000046BB8EE677BD3E9022327EE067B81ED47
:102DB000046BC1E9022381ED087B10BD38B53021D9
:102DC0000546012014F0DAFC044600282AD02846E3
:102DD000FFF770FF01462062002825D00022154B26
:102DE0000020C4E900230022134BC4E9022300227F
:102DF0000023C4E90423C4E90623C1E90223C1E98D
:102E00000423C861C1E90823896A0860C1E9022373
:102E1000C1E90423C1E90623C1E90823C1E90A2362
:102E2000C4E90A23204638BD20460C4614F0E6FCCF
:102E3000F8E700BF0000E03F00000C4098B138B553
:102E4000056A044655B1A86908B114F0D7FCA86A10
:102E500008B114F0D3FC284614F0D0FC204614F03E
:102E6000CDFC002038BD0020704700BF00000000EE
:102E7000B7EE007BB4EEC70BF1EE10FA04DDB0EE56
:102E8000470B80ED000B7047B5EEC00BF1EE10FA6A
:102E9000F7D59FED030B80ED000B7047AFF300807B
:102EA000000000000000000080ED020B704700BF32
:102EB00080ED040B704700BF90ED005B90ED0A7B46
:102EC000B7EE006B25EE077B36EE456B10B5A6EE30
:102ED000007B0446006A2DED028BB0EE408B84ED42
:102EE0000A7BB0EE470BFFF721FF236A93ED040B3B
:102EF000B5EE400BF1EE10FA45D4B1EEC07BB0EE6A
:102F0000C86B94ED024B94ED045B93ED023B27EE0E
:102F1000047B36EE436BB4EE475BF1EE10FA35FE00
:102F2000077BB4EEC76BF1EE10FA1CDDB4EEC38B79
:102F30009B6AB7EE007BBFEE006B1B68F1EE10FAE8
:102F400037FE067B0A2B17DD94ED066B9FED120B07
:102F5000BDEC028BB4EE476B84ED067BF1EE10FA0C
:102F600000FE070B10BD9FED0C7BBDEC028BB0EE9D
:102F7000470B84ED067B10BDBDEC028B9FED060B6D
:102F800084ED067B10BD13F013F9236AB0EE407B8D
:102F9000B5E700BFAFF300800000000000000000B4
:102FA000B0B110B50446006A08B114F027FC606A9D
:102FB00008B114F023FCA06A08B114F01FFCE06A09
:102FC00008B114F01BFC204614F018FC002010BDC2
:102FD000002070472DE9F84305460E4601203021B8
:102FE000174614F0CBFB044670B3C0E9007577BBFD
:102FF000A9460421284695FBF6F323610023C4E982
:103000000296C4E90533E36114F0B8FB04212062A1
:103010000646284614F0B2FB042160620746484683
:1030200014F0ACFB804604214846C4F8288014F014
:10303000A5FBE06276B16FB1B8F1000F0AD048B1DC
:1030400029463046FFF7F0FA2046BDE8F88306FB34
:1030500005F9CEE72046BDE8F843FFF7A1BF00BF62
:103060002DE9F84FB2F1000A2DED028B40F3858077
:10307000002504461F460E469FED428AA94602E0FF
:103080000135AA4579D0A369D4F824E0626856F8DE
:10309000040B0EEB830101330860216893FBF2F00F
:1030A00002FB1033A36189B1E069A16AD4F808C0BA
:1030B00001EB8001013090FBFCFB0CFB1B00D1F805
:1030C00000C046F804CC81ED008AE061D4E9040137
:1030D000013181426161D3D1002AE06AC4F81490C1
:1030E0000EDD844600EB820B93FBF2F102FB113103
:1030F00001330EEB810109684CF8041BE345F3D161
:10310000216AFFF7D5FAD4F82C80D4E9010B584591
:1031100007DAABEB0002002108EB8000920014F00C
:103120009DFB59464046FEF76BFFA268E16A0C988A
:10313000B8472368002BA3D0E06AA168FFF734F8F2
:10314000A06800289CDDE269D4E90AE101EB800C6B
:10315000B1EC017A92FBF0F300FB1323614502F11D
:1031600001020EEB8303D3ED007A77EE877AC3ED8D
:10317000007AEDD10135AA4585D1BDEC028BBDE8C1
:10318000F88F00BF0000000080687047006970473A
:10319000FEE700BF0B480C4A904203D0121A0B49BD
:1031A00014F034FB0A480B4A904203D0121A002153
:1031B00014F054FB05F0C4F814F0FCFA00F0E0F849
:1031C000FEE700BF0000002408060024F0F6010816
:1031D0000806002414F20024704700BF704700BFA7
:1031E0009FED041AB7EE000A00F59670F0EE410A62
:1031F00001F036BF000000009FED041AF7EE000A50
:1032000000F59670B0EE410A01F02ABF0000000000
:103210002DE9F047924600AF804650484FEA8A05B4
:103220000E4601F0EDFDB7EE005AEB1DDFED4C7AD6
:1032300023F00703A0EE275AADEB030D6946BAF160
:10324000000F6ED0D8F800308946D8F804409FEDC2
:10325000457AE8189C46A646FCEC017AB6EE006A70
:10326000FEEC015ADFED406A77EEA57A67EE867ACA
:1032700067EEA67A67EE857AF0EEE76AE9EC017A06
:10328000F4EE476AF1EE10FA36FE877A8445E3D110
:10329000DFED346AF3EC017AF6EE005AB4EC015A31
:1032A0009FED316A77EE857A67EEA57A67EE867ACA
:1032B000F0EEE77AF4EE667AF1EE10FA77FEA66A9F
:1032C0008342E7D19FED296A5246294B66EE866A12
:1032D000DFED287A27EE067A93ED006AE6EE276A9C
:1032E000C3ED006A244BD3ED006AA6EEA77A83ED06
:1032F000007A224B1868FEF7C3F9D8F8003031681D
:10330000D8F804001D44726853F8044B41F8044B8C
:103310009D4250F8044B42F8044BF5D1BD46BDE840
:10332000F087DFED107A5246134B114CF0EE676ACE
:103330009FED107AD4ED005A93ED006AE5EE876AAE
:103340000E48E6EE077A0068C4ED006AC3ED007A25
:10335000FEF796F9BD46BDE8F08700BF940600244D
:103360000000444200000000FCFFFF379A99993E9C
:10337000849900243333333F280600242406002494
:103380002DE9F04F854F0021DFF85482384607F1D0
:1033900088052DED028B93B000F02AFA022107F187
:1033A000240002AC01F0E4FE21227D4907F1240053
:1033B00001F064FF1C227B4907F1240001F05EFF4D
:1033C000F7EE000A9FED780A0FCD0FC495E80F00C5
:1033D00084E80F00002202A9744801F0E9FD384694
:1033E00000F046F9FEF7B4FBC8F80000002800F032
:1033F0008E803A466E49FEF7A1FD3A466D49D8F8EF
:103400000000FEF7A1FDD8F800302BB11F226A4959
:1034100007F1240001F032FF684900255F48684E3B
:1034200000F024F9DFF8BC91DFF8BCB1DFF8BCA1F3
:103430001DE0B5EEC08AF1EE10FA40F38F809FEDEB
:103440005A1AF7EE000A5F48B0EE410A01F008FE92
:103450009FED551AF7EE000A5B48B0EE410A01F005
:10346000FFFD4E4800F024F90A2004F083FD4B488C
:1034700000F00EF9494800F0FFF8544801F0C0FC94
:10348000D8F80000F0EE408AFDF7C2FCB7EEC08B22
:1034900004F06EFD33680446C31AB3F5FA7F0CD806
:1034A000D9ED007AB7EE007A78EE677AF0EEE77A37
:1034B000F4EEC77AF1EE10FA17DDB5EEC08AF1EE40
:1034C00010FA12DDB7EEC87A414902A853EC172B67
:1034D00014F000FB02A8FCF703FF02A902463D48D6
:1034E00001F0CCFE89ED008A3460631BB3F5FA6FFE
:1034F0001AD897F8BA30FF2B9BD19FED2B1AB0EE5C
:10350000680A3148F0EE410A01F0AAFDA9E79FEDF3
:10351000261AB7EE000A2B48F0EE410A01F0A0FD92
:103520001E4800F0C5F8F2E79AED007A02A8DBED3C
:10353000006A2546B7EEC77A2749B7EEE66A8DEDF1
:10354000007B53EC162B14F0C5FA02A8FCF7C8FE5A
:1035500002A902461F4801F091FECAE7F3EE046A91
:10356000DAED007AB7EE007ADFED0F0A9FED1B1A55
:1035700067EEA67A1348B0EE600AC7FEC77A81FEEE
:10358000271A01F06DFD9FED081A0F48F0EE410A71
:10359000B0EE410A01F064FD63E700BF2C06002491
:1035A000E4CD010808CE0108000000004C99002479
:1035B000E1310008F931000828CE01081132000875
:1035C00010990024040700245807002494060024BE
:1035D00048CE0108500600245CCE0108CDCC4C3DFD
:1035E000240600240C990024849900242806002431
:1035F00038B5174C002504F5C0702560656125625B
:10360000E56301F0BBFC134940F20F73124A2046F8
:10361000C4F8381204F51471A4F83C3240F20113D6
:10362000C4F89051C4F84852C4F84C52C4E99013FD
:103630000A4911F059FF0A49074A0A4811F054FF94
:10364000054A07490848BDE8384011F04DBF00BFA2
:103650002C0600240080707F00000024DD3100086B
:10366000D9310008149900244C99002400F056B96F
:10367000183002F041B800BF10B50446683001F0C0
:10368000BFFB04F18800BDE8104001F0B9BB00BFEA
:1036900010B50446403001F033FC04F1B00001F0F5
:1036A00037FD04F1C000BDE8104001F031BD00BF9E
:1036B00010B50446D83001F003FD04F59670BDE85E
:1036C000104001F0FDBC00BFF0B54FF481718FB028
:1036D00000F1D80701254FF4C0624FF4E063ADF864
:1036E000081000F5967402993846ADF80C2008AE23
:1036F000ADF810300095DDE9032301F089FC40F2BC
:1037000001134FF480722046ADF814304FF48063FB
:10371000059900950BADADF81820ADF81C30DDE92A
:10372000062301F075FC3046072105F0DBFA96E828
:10373000070085E807002946384601F0ABFC96E80B
:10374000070085E807002946204601F0A3FC38461B
:1037500001F0B6FC20460FB0BDE8F04001F0B0BC6F
:103760002DE9F04140F2024304460222002504F113
:10377000180704F1A8062DED028B8EB09FED1B8A71
:10378000ADF80C3005A8039901F094FD02220DF16B
:103790002600ADF81020049901F08CFD04230222CC
:1037A00005A9384601F09AFD04F1680204F1880386
:1037B000C4E92A232946384656F8048B01F0B2FFA3
:1037C00001462046019100F0C9F80023F0EE480AB6
:1037D000019940461A4601F0E1FA25B10EB0BDEC60
:1037E000028BBDE8F0810125E4E700BF6F12033BC7
:1037F0002DE9F04104469AB00027019100F08CF8C1
:103800000199204600F06AF940F6061304F1B0066B
:103810009FED400AADF8143004F1C005304605991B
:1038200001F05CFC4FF4007328469FED3A0AADF8B6
:10383000183004F5C878069901F050FC40F60332C0
:1038400040F201639FED330AADF8082004F1400017
:103850000299ADF80C70C4F8D0600FAEC4F8D45023
:1038600007ADADF81030DDE9032301F019FB204668
:10387000FFF72AFF2046FFF773FF284601F07EFB83
:1038800001230DF12C0E04F5C07C1593189347F617
:103890001223169719930223179395E80F008CE8CB
:1038A0000F008EE80F0086E80F00BDF8403014903E
:1038B000ADF84E30BDF84230D4E9625EADF84C3020
:1038C000C4E9655EBEF1000F04D072463946284651
:1038D00013F0C4FF13A9404604F0D0F804F5D270E9
:1038E00001F060FB3021204600F01CF8D4F8A8500D
:1038F000204600F033F8284601F0A6FAD4F8AC5080
:10390000204600F02BF828461AB0BDE8F04101F03F
:103910009BBA00BF00000000704700BF143001F0E8
:1039200009BA00BF38B500F1140504462DED028B2D
:10393000284601F0EDF9284601F0F8F92846B0EEE6
:10394000408A01F0E1F9D0ED007AF8EE677A88EE6E
:10395000277ABDEC028B84ED0E7A38BD90ED0E0A0D
:10396000704700BF10B540F203338EB000244FF60D
:103970000B7240F20341ADF8083009A80123ADF8FD
:103980001020ADF824202246ADF80C1000940299C6
:1039900007940C94CDE90544CDE90A4401F0C4FF35
:1039A00004A8012322460399009401F0BDFF09A851
:1039B00002F0A0F810B901200EB010BD04A802F06A
:1039C00099F8A0420CBF022020460EB010BD00BFE7
:1039D0002DE9F04103239AB0012700240646CDE9E2
:1039E00014373B4BCDE9104340F20453CDE9164761
:1039F000ADF84830FFF7B6FFB842054625D002289B
:103A000045D040F60132334B0DF12C081894ADF837
:103A10002C200B981997CDF84A3000F0E3F810A944
:103A200006F13C0003F0B0F8302003224FF07E5343
:103A300041460D930E93CDE90B02F26B06F1140093
:103A400001F02AF91AB0BDE8F0811023214A06A935
:103A500006908DF828300DF12C081F4BCDF84A2028
:103A600007930294CDE91804CDE9080402A802F0F6
:103A7000C1FA0823029A03A94046ADF80C508DF80C
:103A80000E40049505930B9400F0ECF8C7E7002076
:103A90000121104B0DF12C083A460094CDF84A3024
:103AA0004FF60B730C94ADF82C302346CDE918017A
:103AB00040F601314046ADF818100699CDE90D44A5
:103AC00001F032FF2146404602F020F8A7E700BF90
:103AD00004020404040604030704010B2DE9F04763
:103AE00004462DED028B82B000294DD0012140F219
:103AF000011200230091ADF804208DF80630364AFB
:103B00000127364B04F10409354904F129086260A4
:103B100040F20272A36040F60663E16004F1250AF8
:103B2000A4F82520A4F82930278284F8277084F887
:103B30002B7004F0BBFB054604F01EFA69460646EE
:103B400050BB4DB304F130008DF8067004F036FB25
:103B5000072D3CD104F114052046FFF739FF284614
:103B600001F0E4F82846B0EE408A01F0CDF8D0ED3F
:103B7000007AF8EE677A88EE277A84ED0E7A02B042
:103B8000BDEC028BBDE8F08740F2011300918DF887
:103B90000610ADF80430B2E704F1300004F00EFB7B
:103BA000072D11D04946204602F06EFC0EB9002DBB
:103BB000D0D1504601F0B4FF404601F0B1FF04F10E
:103BC000120000F079F9C5E7002EF2D1C2E74946AC
:103BD000204602F059FCBDE7050805090507050662
:103BE000050A060610B584B003460124ADF80400AA
:103BF00003A8ADF80C30ADF80E4001F091FF21465E
:103C000003A802F077F8204604F0B4F9002103A8D5
:103C100002F070F8204604F0ADF9214603A802F046
:103C200069F804B010BD00BF10B5C2F3002384B022
:103C30000C46017C8DF80D2043EA4402FA2402234D
:103C40008DF80C2003AA009402F06AFA18B101243E
:103C5000204604B010BD04460A2004F08BF920462B
:103C600004B010BD034670B543F8042B044684B07D
:103C700007C983E80700A37983B91A210B461E22DE
:103C8000FA2523742046ADF80C20022303AA0095E0
:103C900002F046FA28B1012004B070BD1B210B468A
:103CA000EDE70A2004F066F94FF4B85200950223BC
:103CB000ADF80C20204603AA217C02F031FA00283E
:103CC000E9D10A2004F056F941F20272009502236C
:103CD000ADF80C20204603AA217C02F021FA00282E
:103CE000D9D10A2004F046F9042200950223ADF848
:103CF0000C20204603AA217C02F012FA0028CAD127
:103D00000A2004F037F9062200950223ADF80C20B2
:103D1000204603AA217C02F003FA0028BBD10A2026
:103D200004F028F941F2082200950223ADF80C2096
:103D3000204603AA217C02F0F3F90028ABD10A2027
:103D4000064604F017F90095022303AA217C2046B9
:103D5000ADF80C6002F0E4F900289CD1304604F084
:103D600009F9009522790C232046002A8DF80C30A1
:103D700003AA4FF0020314BF622142218DF80D10F7
:103D8000217C02F0CDF9002885D1304604F0F2F80C
:103D90002279D4E902310B43DBB20AB943F0400384
:103DA00062790AB143F020030E22FA258DF80D3016
:103DB0002046009502238DF80C2003AA217C02F0F6
:103DC000AFF900287FF467AF0A2004F0D3F810227F
:103DD00000950223ADF80C20204603AA217C02F0B6
:103DE0009FF900287FF457AF0A2004F0C3F812218E
:103DF00000950223ADF80C1003AA217C204602F0A6
:103E00008FF900287FF447AF0A2004F0B3F80122AD
:103E100009212046FFF708FF003818BF01203BE7C3
:103E2000F0B5102387B0234C01220025012600277E
:103E300002A920460195CDE902234FF48052CDE935
:103E400004670BF0D3FC642005F07EF802A94FF460
:103E500080522046CDE9046702261027CDE902678B
:103E60000BF0C4FC0322102302A92046CDE9022353
:103E700000230422CDE904234FF480520BF0B6FC5A
:103E800040F23223042202A9019310232046CDE9F7
:103E90000223019A012305924FF4805204930BF000
:103EA000A5FC40F6060120460BF0C0FC284607B0F2
:103EB000F0BD00BF909900241C4B00221C494FF01C
:103EC000400C30B5054689B00220596007219A6040
:103ED0001A620124DA620A224FF4006EDC60069254
:103EE0002022CDE9000104200821CDE902010320B0
:103EF0001021CDE9040108206946C3E904024FF40A
:103F0000C072181DC3E906C24FF48052C3E909E22A
:103F10000BF042FC38B92846FFF782FF003818BF83
:103F2000012009B030BD204609B030BD8C99002475
:103F300040410052614A0021D0B513688EB00A9109
:103F4000002B40F0B9805E4B01214FF683700C24AA
:103F500011600221D3F8D4200026032742F48052B6
:103F6000C3F8D420D3F8D42002F480520092009AEF
:103F7000D3F8E02042F01002C3F8E020D3F8E020AC
:103F800002F010020192019AD3F8E02042F04002C0
:103F9000C3F8E020D3F8E02002F040020292029A37
:103FA000D3F8E02042F00802C3F8E020D3F8E02084
:103FB00002F008020392039AD3F8E02042F48072E0
:103FC000C3F8E020D3F8E02002F480720492049A4F
:103FD000D3F8E02042F08002C3F8E020D3F8E020DC
:103FE00002F080020592059AD3F8E02042F0200208
:103FF000C3F8E020D3F8E02002F020020692069AEF
:10400000D3F8E02042F00402C3F8E020D3F8E03017
:104010000C9403F0040307930323079A0B93CDE951
:10402000080108A9274806F015FE48F237120223B6
:1040300008A925480C94CDE90823CDE90A6706F0C4
:1040400009FE4CF20372022308A920480C94CDE922
:104050000823CDE90A6706F0FDFD40F2FF62022366
:1040600008A91B480C94CDE90823CDE90A6706F09E
:10407000F1FD4FF60C72022308A916480C94CDE905
:104080000823CDE90A6706F0E5FD4FF63F0202235B
:1040900008A911480C94CDE90823CDE90A6706F078
:1040A000D9FD2022022308A90A480C94CDE90A6709
:1040B000CDE9082306F0CEFD0EB0D0BD88990024CE
:1040C000004402580010025800180258000C025810
:1040D00000200258001C0258001402582DE9F04F2D
:1040E000DFF8108406460D46144608F118002DED41
:1040F000028B89B000AF02F03FFED8F8183073B3DE
:10410000D8F81C30D8F80490002B43690BBF4FF04F
:10411000080A4FF0100A4FF0020B4FF0040BB9F1F0
:10412000000F2AD0A200EA46012B02F1070222F07A
:104130000702ADEB020D6846ADEB020D694600F0DB
:104140003F81022B00F0D680002B6FD02246C8475B
:10415000D5462437BD46BDEC028BBDE8F08FD8F8BC
:104160001C30002BF5D0D8F804904FF0080A4FF01F
:10417000020B4369B9F1000FD4D1FB61D8F80030CC
:10418000BB61002BE5D0D54802F068FE6B46BBF161
:10419000020F786108EE103AFB6900F083816A46ED
:1041A0005146A2EBC40295466200EA46B2FBFBF21E
:1041B000AAEBC40085460AEB8200EE46F861ADEB3F
:1041C000010DF8690EEB820CC7F810C0EC46ADEBA0
:1041D000010D00EB8201CCF80400CCF8081001EBD3
:1041E00082013869E946CCF80C1000EB8201CCF86A
:1041F00000A001EB8202C9E900E0C9E90212012B2B
:1042000000F06483022B00F06C82002B00F08081B0
:10421000620849466046BB69984718EE103A243751
:104220009D46BD46BDEC028BBDE8F08F002C8DD0C5
:104230001A46D8ED0C6A9FEDB27A8446331D36F9E2
:1042400022E00CF1080C07EE90EA33F922E002328A
:10425000F8EEE77A944267EE877A67EEA67A4CED3D
:10426000027A07EE90EAF8EEE77A67EE877A67EE71
:10427000A67A4CED017AE2D8F9612246C847984EF9
:10428000D8ED0D6A0020F9692B1D9FED9E7A9FEDF8
:104290009E6ADFED9E5A22E0F4EEC67AF1EE10FA45
:1042A000C0F2C88447F6FE72D1ED017A45F82020AD
:1042B00066EEA77AF4EEC77AF1EE10FA40F2F080DB
:1042C000F4EEC67AF1EE10FAC0F2D58447F6FE722B
:1042D00043F820200230083184427FF639AFD1ED17
:1042E000007A66EEA77AF4EEC77AF1EE10FAD3D828
:1042F0003246D9E7002C3FF429AFD8ED0C6A84464A
:104300009FED787A0022331D8E4656F822100CF16C
:10431000080C07EE901A53F822100232F8EEE77AF2
:10432000944267EE877A67EEA67A4CED027A07EE42
:10433000901AF8EEE77A67EE877A67EEA67A4CED88
:10434000017AE2D871462246C7F81CE0C847664E9B
:10435000D8ED0D6A0020F9692B1D9FED6A7A9FED5B
:104360006A6ADFF894C120E0F4EEC67AF1EE10FA42
:10437000C0F279843246D1ED017A45F8202066EE0C
:10438000A77AF4EEC77AF1EE10FA40F28780F4EEE5
:10439000C67AF1EE10FAC0F25E84324643F820206D
:1043A0000230083184427FF6D3AED1ED007A66EE5A
:1043B000A77AF4EEC77AF1EE10FAD5D86246DAE7BA
:1043C000002C3FF4C3AED8ED0C6A86469FED477AC9
:1043D0004FF0000C331D56F82C200EF1080E82F41D
:1043E0000002A2F5000207EE902A53F82C200CF1EF
:1043F000020CF8EEE77A82F400026445A2F50002AE
:1044000067EE877A67EEA67A4EED027A07EE902A7B
:10441000F8EEE77A67EE877A67EEA67A4EED017AD4
:10442000D9D8F9612246C847314ED8ED0D6A00202F
:10443000F9692B1D9FED337A9FED336ADFF8BCC01D
:104440001FE0F4EEC67AF1EE10FAC0F2FC833246B9
:10445000D1ED017A45F8202066EEA77AF4EEC77A0E
:10446000F1EE10FA18D9F4EEC67AF1EE10FAC0F2B5
:10447000DA83324643F820200230083184427FF646
:1044800067AED1ED007A66EEA77AF4EEC77AF1EE68
:1044900010FAD6D86246DBE76246EBE762467DE774
:1044A000324615E7A100D6466208073121F0070120
:1044B000ADEB010DEA46ADEB010D6946ADEB0E0D1E
:1044C0000AEB8200EC46ADEB0E0D01EB8202F861C7
:1044D000E946CCE900A0C9E9001290E6E099002481
:1044E0000280FFFF000000300082FF7F00000034E8
:1044F00082FF7F00C4990024007E00807E0080FF40
:104500000000003804FF7FBF04FF7F3F00FEFF462E
:10451000002C00F0C982BBF1020FD8F8242000F073
:10452000FA827969C7F8049002EB810E5FED0C5AAC
:104530008A00DCF808100EF104007A611A46DCF8F3
:104540000C303B61331DD7F810903D61FD69C7E920
:1045500002CB8C46834636F92210D8ED0C7A06EE53
:10456000101A33F9221006EE901A3EF92210B8EE16
:10457000C66A07EE101AF8EEE66A3BF92210B8EEAA
:10458000C77A26EE256A66EEA56A27EE257A26EE1C
:10459000276A66EEA76A27EE277A07EE901A510877
:1045A0000232F8EEE77A0AEB8100944280ED006A6D
:1045B00005EB810067EEA57AC0ED006A0CEB810087
:1045C00009EB810180ED007A98ED0C7A67EE877A2D
:1045D000C1ED007ABFD8D7F804903D69D7E902CB86
:1045E00060466208BB6949469847D8F82C307A691A
:1045F000D8ED0D6A1A441FED3D7A1FED3D6A2B1D63
:10460000904602F1040A5FED3F5A0022A84ED9E914
:1046100000EC51E0F4EEC67AF1EE10FAC0F2C78277
:1046200047F6FE7045F822000CEB0100D0ED007A51
:1046300066EEA77AF4EEC77AF1EE10FA4BD9F4EEF3
:10464000C67AF1EE10FAC0F2BA8247F6FE70BBF1FC
:10465000020F43F822002BD0D9F808000844D0ED0F
:10466000007A66EEA77AF4EEC77AF1EE10FA36D940
:10467000F4EEC67AF1EE10FAC0F2CD8247F6FE7083
:1046800048F82200D9F80C000144D1ED007A66EE1A
:10469000A77AF4EEC77AF1EE10FA1ED9F4EEC67AD4
:1046A000F1EE10FAC0F2AF8247F6FE714AF822101E
:1046B000023294427FF6B1AD51080EEB81008900C1
:1046C000D0ED007A66EEA77AF4EEC77AF1EE10FA32
:1046D000A0D83046A6E73046B9E73146E6E730468F
:1046E000CEE7002C00F0E081BBF1020FD8F82430B7
:1046F00000F0E1817A69DCF8081003EB820EC7F85C
:1047000004909300DFED6B5A0EF1040000227B61F0
:10471000DCF80C303B61331DD7F810903D61FD692A
:10472000C7E902CB8C46834656F82210D8ED0C7AA6
:1047300007EE101A53F82210B8EEC76A07EE101AE7
:104740005EF82210F8EEC76A07EE101A26EE256A08
:104750005BF82210B8EEC77A66EEA56A26EE276AE5
:1047600027EE257A66EEA76A27EE277A07EE901ADB
:1047700051080232F8EEE77A0AEB8100944280EDAC
:10478000006A05EB810067EEA57AC0ED006A0CEBCC
:10479000810009EB810180ED007A98ED0C7A67EEDB
:1047A000877AC1ED007ABFD8D7F804903D69D7E980
:1047B00002CB60466208BB6949469847D8F82C305E
:1047C0007A69D8ED0D6A1A449FED3E7A9FED3E6AF4
:1047D000131D9246DFF8E4C00022FB612B1D364E0C
:1047E000D9E9008E4EE0F4EEC67AF1EE10FAC0F28E
:1047F000FC81304645F822000EEB0100D0ED007A36
:1048000066EEA77AF4EEC77AF1EE10FA49D9F4EE23
:10481000C67AF1EE10FAC0F2EF813046BBF1020F1A
:1048200043F822002AD0D9F808000844D0ED007AD5
:1048300066EEA77AF4EEC77AF1EE10FA35D9F4EE07
:10484000C67AF1EE10FAC0F2C98130464AF8220069
:10485000D9F80C000144D1ED007A66EEA77AF4EEA7
:10486000C77AF1EE10FA1ED9F4EEC67AF1EE10FA1C
:10487000C0F2AD813146F86940F82210023294420C
:104880007FF6CBAC510808EB81008900D0ED007AAF
:1048900066EEA77AF4EEC77AF1EE10FAA3D8604676
:1048A000A8E76046BAE76146E5E76046CEE700BFA5
:1048B0000280FFFF000000300082FF7F007E00804A
:1048C0000000003404FF7FBF04FF7F3F002C00F096
:1048D000EB807A690021D8F82430C7F8109003EBF8
:1048E000820ED7F81C909300FD610EF104021FEDBB
:1048F0000C6A7B61331D154656F821204808D8ED17
:104900000C6ABBF1020F82F40002A2F5000207EE6E
:10491000902A53F8212082F40002B8EEE77AA2F53B
:10492000000227EE067A07EE902A0AEB8002F8EEE4
:10493000E77A27EE267A67EE867A82ED007A09EB2F
:1049400080024FEA800067EEA67AC2ED007A27D097
:104950005EF8212082F40002A2F5000207EE902A00
:1049600055F8212082F40002B8EEE77AA2F50002A1
:1049700027EE067A07EE902ADCF80820F8EEE77AB0
:10498000024427EE267A67EE867A82ED007A98ED69
:104990000C7ADCF80C2067EE877A0244C2ED007ACC
:1049A00002318C42A8D8D7F8109060466208BB69E3
:1049B0004946FD699847D8F82C307A69D8ED0D6AD8
:1049C0001A441FED407A1FED406A131D9246DFF82E
:1049D000C4C20022FB612B1DAB4ED9E9008E4EE014
:1049E000F4EEC67AF1EE10FAC0F2C580304645F812
:1049F00022000EEB0100D0ED007A66EEA77AF4EE0D
:104A0000C77AF1EE10FA49D9F4EEC67AF1EE10FA4F
:104A1000C0F2BF803046BBF1020F43F822002AD01B
:104A2000D9F808000844D0ED007A66EEA77AF4EED3
:104A3000C77AF1EE10FA35D9F4EEC67AF1EE10FA33
:104A4000C0F2AE8030464AF82200D9F80C0001448A
:104A5000D1ED007A66EEA77AF4EEC77AF1EE10FA9D
:104A60001ED9F4EEC67AF1EE10FAC0F28B80314610
:104A7000F86940F82210023294427FF6CEAB51081A
:104A800008EB81008900D0ED007A66EEA77AF4EE9B
:104A9000C77AF1EE10FAA3D86046A8E76046BAE7F5
:104AA0006146E5E76046CEE7224649466046BB6977
:104AB0009847FFF7B2BBC7F810B0002298ED0C6A18
:104AC000331DDFED726AD7F81CB0786956F82210F2
:104AD00007EE901A53F82210B8EEE77A07EE901A14
:104AE00051080232F8EEE77A27EE267A0AEB810EB9
:104AF00094420BEB810167EEA67A27EE067A67EE09
:104B0000867A8EED007AC1ED007ADFD88300D7F87F
:104B100010B07B614DE61A46C7F810B098ED0C6AEC
:104B2000331DDFED5B6AD7F81CB0786936F92210C7
:104B300007EE101A33F9221007EE901AB8EEC77A72
:104B400051080232F8EEE77A27EE267A0AEB810E58
:104B500094420BEB810167EEA67A27EE067A67EEA8
:104B6000867A8EED007AC1ED007ADFD88300D7F81F
:104B700010B07B6134E5F0EE675AFEEEE45A15EEB4
:104B8000900A34E7F0EE675AFEEEE45A15EE901AFA
:104B90006EE7F0EE675AFEEEE45A15EE900A3AE739
:104BA000F0EE675AFEEEE45A15EE900A4BE767EE18
:104BB000A57AFDEEE77A17EE900A00B232E567EECD
:104BC000A57AFDEEE77A17EE900A00B23FE5F0EE27
:104BD000675AFEEEE05A15EE901A4CE6F0EE675A70
:104BE000FEEEE05A15EE900A30E6F0EE675AFEEE61
:104BF000E05A15EE900AFDE5F0EE675AFEEEE05A37
:104C000015EE900A0AE667EEA57AFDEEE77A17EE52
:104C1000901A09B24AE567EEA57AFDEEE77A17EE3B
:104C2000900A00B22CE5F0EE675AFEEEE45A15EE5B
:104C3000902A1FE467EEA57AFDEEE77A17EE902A38
:104C400012B2FFF731BBF0EE675AFEEEE45A15EEF2
:104C5000902AFFF7FDBBF0EE675AFEEEE05A15EE24
:104C6000902AFFF79BBBF0EE675AFEEEE05A15EE76
:104C7000902AFFF780BB67EEA57AFDEEE77A17EE84
:104C8000902A12B2FFF724BB82FF7F0000000030A1
:104C9000000000387E0080FF30B5184C154685B006
:104CA000046004F1080EEC460FC98EE80F00D4ED45
:104CB000047AF5EEC07A8CE80F00F1EE10FA1ADDF6
:104CC000B7EE006A94ED057A27EE277AC6EE276ADA
:104CD00084ED0D7AC4ED0C6A6DB1204640F8185F82
:104CE00002F04AF8064903690020064A2162A262DE
:104CF000E36005B030BD012005B030BDC49900248B
:104D0000002000300000003000680830704700BF0D
:104D1000B1F5807F03680A4628BF4FF48072B1F571
:104D2000807F9A6094BF002001207047006818308F
:104D300002F082B830B5046883B00D46E3694BB128
:104D4000A3680020E26A616A9B00009004F11C00E5
:104D500002F014F8A3680748A26A9B00216A009039
:104D600004F1180002F00AF80020C4E9005003B072
:104D700030BD00BFDD40000810B4074B4FF07E513E
:104D800030240022032019619C60D8605DF8044B38
:104D90005961C3E906227047C4990024F6EE007AEF
:104DA0009FED166A20EE207A0160F7EE006A80ED32
:104DB000036A80ED020A27EE277AC6EE877AF4EEC0
:104DC000E67AF1EE10FA11DDF0EE667A4FF07E51E0
:104DD0004FF0000C02760022C0ED017AC0F814C03A
:104DE000016143768276C0ED070A7047F4EEC67A19
:104DF000F1EE10FAEAD5F0EE467AE7E7000000009F
:104E00000268037E128807EE902AFBEEC87A1BB177
:104E1000B7EE007A77EE677AD0ED056A90ED047A06
:104E200077EEE67A437E67EE877A0BB1F1EE677A2A
:104E300090ED030A90ED017A77EEC07AA7EE270A8B
:104E400080ED030A704700BF837E80ED020AABB994
:104E5000D0ED077A27EE800AF6EE007AB7EE007AF8
:104E600020EE270AC7EE007AF4EEC77AF1EE10FAC8
:104E700007DDF0EE477AC0ED017A7047DFED067A84
:104E8000E8E7F5EEC07AF1EE10FAF4D5DFED037A3B
:104E9000C0ED017A704700BF6F12033B00000000B5
:104EA00030B585B004460025ADF80C10ADF80820EB
:104EB000ADF8043003F05CF8BDF80C204FF48073BB
:104EC000206004F118002283BDF808206383E38387
:104ED000A283257100F024FE04F11C0000F020FEE6
:104EE0009FED060A019904F1080000F0F7F84FF66B
:104EF000FF736562238405B030BD00BF0000000071
:104F0000F8B5044603F034F800262368267183427E
:104F100005D104F10800BDE8F84000F0F9B8012718
:104F200094F82050206004F11800BD40277100F073
:104F3000D3FE6DB2284394F82150BD4084F8200080
:104F400004F11C0000F0C8FE94F820306DB26662D7
:104F500003F003032843022BC0B284F8210009D0D8
:104F600000F003000228D4D1002BD2D14FF0FF3340
:104F70006362CEE78307CCD16762CAE7074A11882C
:104F800030B481800024064D91884FF48072856092
:104F90000460C180C26030BC704700BFD08C010883
:104FA0000040003000220A2302700371704700BFE6
:104FB000DFED167A8C46B4EE670A10B504468646D5
:104FC000F1EE10FA2DED028B80ED080A48BFB0EE2D
:104FD000670AC0ED090AB0EE608A80F83420BCE8A8
:104FE0000F00AEE80F009CE80F008EE80F0011F0F4
:104FF00023F8F0EE407AB0EE480AC4ED0A7A11F0D8
:105000001BF884ED0B0ABDEC028B10BD95BFD633A7
:1050100030B585B004469FED110A9DF82050ADF8DB
:105020000C100399ADF808202A46ADF804308DED38
:10503000000A0EF045F99DED000A2A46029904F196
:105040001C000EF03DF99DED000A2A46019904F17D
:10505000380005B0BDE830400EF032B900007A44A7
:1050600010B52DED028BF0EE608A0446B0EE418A59
:105070000EF04AF904F11C00B0EE680A0EF044F993
:10508000B0EE480A04F13800BDEC028BBDE81040D8
:105090000EF03AB938B50C46054691ED000A0EF00F
:1050A00033F994ED010A05F11C000EF02DF994ED91
:1050B000020A05F13800BDE838400EF025B900BFFE
:1050C00010B504460EF032F904F11C000EF02EF972
:1050D00004F13800BDE810400EF028B970B5044660
:1050E00082B0C1F30726CDB2ADF8041002F040FF44
:1050F0004FF480724FF001232060A01DA571A280A3
:10510000E671A36002B0BDE8704000F009BD00BFC9
:1051100038B5044602F02CFF002223682271834236
:1051200010D00122A57AE37A954020602271A01D5B
:105130006DB243B900F0D0FD40B22843C0B27F2821
:10514000A0720AD038BD00F0C7FDB0FA80F0400967
:105150002843C0B27F28A072F4D102F009FF07EE05
:10516000900AF8EE677AC4ED037A38BD704700BF45
:10517000012910B506D0022915D051B1BDE8104063
:1051800007F04ABC0A46344834490DF0EDFBE8B15B
:10519000FEE7334B0A46334C334934481C600DF06C
:1051A000E3FB68B1FEE701222C492B480DF0DCFB44
:1051B00000B1FEE72E4928480DF0F8FBC0B1FEE72C
:1051C0002B492A480DF0F2FB60B1FEE7284922483E
:1051D0000DF0ECFB00B1FEE726491F480DF074FB13
:1051E00008B3FEE7244921480DF06EFBA8B1FEE7A5
:1051F000204919480DF068FB00B1FEE716480DF094
:10520000EBFB024640B9164B164C174917481C6079
:105210000DF0AAFB68B1FEE7FEE714480DF0DCFBD9
:105220000028ABD0FEE70C480DF0D6FB0028A5D037
:10523000FEE70F490D480DF0B9FB00B1FEE70E493E
:105240000A480DF041FB00B1FEE708480DF0C4FB31
:10525000002893D0FEE700BF989C00249002002411
:10526000349F00246D51000874020024FC9900242E
:10527000F80200245402002444020024084691B29B
:1052800008B503F04DF9003818BF012008BD00BF74
:10529000014806F09FBE00BF98D90024014806F0DF
:1052A00099BE00BF98D90024014806F093BE00BF04
:1052B00098D9002400B583B04FF0000E4FF0030CD6
:1052C0004274ADF80410BDF8043080F810E0A0F886
:1052D00002C0038003B05DF804FB00BF2DE9F04F6E
:1052E000DFF81C8300258DB0C04C037008F140032B
:1052F0004260074601920E46202229464046C4F8E5
:105300006831C4F86481CDE90255CDE90455CDE991
:105310000655CDE90855CDE90A5512F09FFA20222D
:10532000294604F5A170C4F83151C4F83551C4F8C8
:105330003951C4F83D5112F091FA019B84F848525A
:1053400084F830317A68002A6AD02B4604F59871C7
:10535000454606F1100A9E46F01856F803B0E218CA
:105360000EF1010ED0F80CC0D0F80490D0F80880EF
:1053700044F803B0C2F80CC04FF0000CC2F804901F
:10538000C2F80880008A25F802CB10821AF80320A0
:1053900001F8012F002A70D07A684FF00100123313
:1053A000724584F84802D7D84FF4802290489DF87F
:1053B000043008214FF000084FF00009C4F8843190
:1053C0000023C4E95B020122C4F8743184F88031FF
:1053D000C4E95E2194F84812C4E96489A9B3C4F809
:1053E0009821002284F8813184F888313B78C4E91F
:1053F0006722002B38D0012200200121013B84F8D4
:10540000A421C4E96C01082B30D8DFE813F0BD00FB
:10541000C200C700CC00D100D600DB00E100E800EC
:105420009DF804300121C4F87421C4F884314FF48C
:10543000802384F880216E4AC4E95B23082300227C
:10544000C4E95E130023C4E964230123002284F825
:105450008131002384F888310323C4F898313B78E4
:10546000C4E96722002BC6D184F8A431614804F056
:10547000A3F9034638B1FFBEFEE77A6812337245DE
:105480003FF66AAF90E702A95A48029304F0F2FA95
:105490008246002876D1042240F2FF710A90CDE9BD
:1054A000081294F83021002A00F0F3804FF006082B
:1054B0000AEBCA034FEACA0904EB43035B7C072BE0
:1054C00007D8DFE803F0595C5653504D4A040723D0
:1054D00007930FFA8AF6D14406EBC60604EB490996
:1054E00004EB46077500384600F01AFB99F81030B7
:1054F000042B00F3AA80022B00F3BD8000F0B980DA
:1055000004EB0A03002283F8202114F81630002B44
:1055100078D0022B00F08A80012B40F0B2807B789B
:10552000012B00F0B080002B334B18BF002305A9DE
:105530003048CDE9053803F06BFD002840F0AC8021
:105540000AF1010A94F830315FFA8AFA534540F2C1
:10555000A0802A4B53F82A80AAE706230793B8E7CE
:1055600005230793B5E704230793B2E703230793C3
:10557000AFE702230793ACE700230793A9E70123D2
:105580000793A6E7FFBEFEE703224023C4E96A2390
:105590006CE707226023C4E96A2367E70F228023B0
:1055A000C4E96A2362E71F22A023C4E96A235DE7F6
:1055B0003F22C023C4E96A2358E77F22E023C4E9DD
:1055C0006A2353E7FF224FF48073C4E96A234DE74F
:1055D00040F2FF124FF49073C4E96A2346E740F2A9
:1055E000FF324FF4A073C4E96A233FE7409F0024D1
:1055F00000200240ACA000240002B02598CE010893
:10560000004100307B78062B37D0072B3DD0022B92
:105610004AD0032B4AD0002B4CD0012B48D0042B6E
:105620004AD0052B254B18BF002380E77B78042B3D
:1056300025D0052B2BD08BB3012B31D0022B31D0B1
:10564000032B1F4B18BF002371E70323043504EB22
:105650000A0B4FF0000925448BF82031284609F148
:10566000010900F05DFA9BF8203104354B45F5DC6B
:105670004BE70123EAE70223E8E7124B57E7124B17
:1056800055E7002353E7114B51E7114B4FE7114BFF
:105690004DE70DB0BDE8F08FFFBEFEE70E4B46E7CD
:1056A0000E4B44E70E4B42E70E4B40E70E4B3EE7F6
:1056B0000E4B3CE70E4B3AE70E4B38E70000B84F75
:1056C000002090360800900C1000C0102000F0144C
:1056D0008000501D000180210004002A0008302EA7
:1056E000001060320040C03A0080F03E0000524797
:1056F000000021430000844B38B5094C40F2FF7292
:105700004FF0011104F5B675284604F061F994F8DC
:105710003021D4F864112846BDE8384003F0CCBEEF
:10572000409F0024034B0F29D3F8640198BF00EB7E
:1057300041007047409F0024214B02689A4200D0EC
:105740007047204A00232048D2F8D81030B51F4CAB
:1057500041F0200183B0C4F8D001092004F5E875B8
:10576000C4E975034FF48060C2F8D810D2F8D8208D
:105770004FF40061C4E9773094F8480202F0200247
:10578000C4F8E4114FF40051984201922846C4F83D
:10579000E811C4E97C33019B14BF00234FF48073EC
:1057A000C4F8EC3104F08CFB08B1FFBEFEE704F551
:1057B000B673C4F8B851C4F8083203B030BD00BFA6
:1057C000002002400044025840000240409F002454
:1057D000014804F0EDBE00BF10A1002402682DE9CD
:1057E000F84F4B4B9A4201D0BDE8F88F494D95F8E0
:1057F0004832002BF8D095F83031002B77D00024B8
:1058000005F10C0905F5A17605F59877A04613E09A
:1058100003F0010117F811BCA9F1080000F06AFAC1
:10582000BBF1010F25D895F83031013409F1120987
:105830000236A2B293422BD917F8012F002AF4D0D6
:10584000D5F864310021327833F81400D5F8683186
:1058500003EB041323F81200338801339BB2338027
:105860005FFA83FA3A789A42D2D88A46A6F800803C
:10587000D0E7CAF34001A9F1040000F03BFABBF104
:10588000020FCAF38001CED0484600F033FACAE7CF
:10589000002395F84802204909229842C5F8D831DA
:1058A0004FF48060C5F8D011C5F8D4214FF40061E1
:1058B0004FF40052C5F8DC3108BF4FF48073C5F8CF
:1058C000E821C5E9780100221448C5E97B32C5F812
:1058D000F42104F0F5FA08B1FFBEFEE795F8302197
:1058E000D5F864110E48BDE8F84F03F0E5BD0A494C
:1058F00009224FF48060C5F8D831C5E974124FF41D
:1059000000614FF40052C5E97730C5E97912DAE752
:1059100000200240409F00244000024010A10024CB
:10592000ACA00024704700BF10B592B0ADF80410D1
:105930000180C9B2149C0B29C460C0E901233FD087
:1059400090F801C0BCF10F0F3AD8022A3FD0032AC9
:1059500002D0012A00D000220E92012B02D0022B8D
:1059600018BF0023022C0F932CD0032C2AD0012C1B
:1059700028D000230A29109327D85C4A02EB812201
:1059800002610A2914D8DFE801F0A39587796B5DDD
:105990004F4133250600564BD3F8E01041F48061A7
:1059A000C3F8E010D3F8E03003F480630C930C9B51
:1059B00001230DA9104603FA0CF30D9305F04AF9E3
:1059C00012B010BD0A291094D7D90022D8E71122AD
:1059D0000E92C2E7464BD3F8E01041F40071C3F8D1
:1059E000E010D3F8E03003F400730B930B9BDFE778
:1059F0003F4BD3F8E01041F48071C3F8E010D3F8C6
:105A0000E03003F480730A930A9BD1E7384BD3F854
:105A1000E01041F08001C3F8E010D3F8E03003F06B
:105A200080030993099BC3E7314BD3F8E01041F0A1
:105A30004001C3F8E010D3F8E03003F040030893CE
:105A4000089BB5E72A4BD3F8E01041F02001C3F8DA
:105A5000E010D3F8E03003F020030793079BA7E79B
:105A6000234BD3F8E01041F01001C3F8E010D3F855
:105A7000E03003F010030693069B99E71C4BD3F824
:105A8000E01041F00801C3F8E010D3F8E03003F073
:105A900008030593059B8BE7154BD3F8E01041F005
:105AA0000401C3F8E010D3F8E03003F004030493DA
:105AB000049B7DE70E4BD3F8E01041F00201C3F8E0
:105AC000E010D3F8E03003F002030393039B6FE789
:105AD000074BD3F8E01041F00101C3F8E010D3F810
